:100000000C942A000C9471060C9495060C944700ED
:100010000C9447000C9447000C9447000C94470044
:100020000C9447000C9447000C9447000C94470034
:100030000C9447000C9447000C9447000C94470024
:100040000C9447000C9447000C9447000C94470014
:100050000C94470011241FBECFE5D8E0DEBFCDBF12
:1000600011E0A0E6B0E0E6ECF7E302C005900D92E7
:10007000A230B107D9F711E0A2E0B1E001C01D92B2
:10008000A530B107E1F70E94C6050C94E11B0C9462
:100090000000EF92FF920F931F937B018C0120E0F1
:1000A00030E040E05FE40E94490388238CF0C801FF
:1000B000B70120E030E040E05FE40E94C1010E940F
:1000C000A9039B01AC01205030404040504806C07D
:1000D000C801B7010E94A9039B01AC01B901CA0183
:1000E0001F910F91FF90EF900895A0E0B0E0EBE733
:1000F000F0E00C94651BDC012B01FA019C9192301D
:1001000008F439C1EB018881823008F433C194309E
:1001100069F4843009F02FC111969C91119789815F
:10012000981709F428C1AAEFB0E025C1843009F47A
:1001300021C18230A9F4923009F01DC19A01AD01AC
:1001400088E0EA010990AE01E90109929E0181501F
:10015000C1F7E201898111969C918923818308C1AD
:10016000923009F407C112962D903C901397EB0141
:100170008A819B811496AD90BD90CD90DC901797AD
:10018000EC80FD800E811F819101281B390BB90184
:1001900037FF04C066277727621B730B6032710537
:1001A0000CF061C0121613066CF537014801062EDB
:1001B00004C096948794779467940A94D2F721E0C8
:1001C00030E040E050E004C0220F331F441F551FB1
:1001D0006A95D2F721503040404050402E213F21B7
:1001E00040235123211531054105510521F021E01E
:1001F00030E040E050E079018A01E628F72808293C
:1002000019293CC0232BD1F1260E371E350146019A
:10021000062E04C096948794779467940A94D2F734
:1002200021E030E040E050E004C0220F331F441FC3
:10023000551F6A95D2F721503040404050402A2146
:100240003B214C215D21211531054105510521F04E
:1002500021E030E040E050E059016A01A628B728CB
:10026000C828D9280BC0821593052CF01C01AA249C
:10027000BB24650103C0EE24FF24870111969C91E5
:10028000D20111968C91981709F445C0992339F041
:10029000A80197012A193B094C095D0906C0A6016E
:1002A00095012E193F09400B510B57FD08C01182D3
:1002B0003382228224833583468357831DC081E0A5
:1002C00081833382228288279927DC01821B930B4A
:1002D000A40BB50B84839583A683B7830DC0220F2F
:1002E000331F441F551F24833583468357838281E0
:1002F000938101979383828324813581468157813D
:10030000DA01C9010197A109B1098F5F9F4FAF4F72
:10031000BF4328F30BC0918333822282EA0CFB1C7B
:100320000C1D1D1DE482F5820683178383E0808304
:10033000248135814681578157FF1AC0C901AA27F8
:1003400097FDA095BA2F81709070A070B0705695EF
:10035000479537952795822B932BA42BB52B848318
:100360009583A683B7838281938101969383828349
:10037000DF0101C0D201CD01CDB7DEB7E2E10C94BF
:10038000811BA0E2B0E0E7ECF1E00C94711B698303
:100390007A838B839C832D833E834F835887E9E048
:1003A000EE2EF12CEC0EFD1ECE010196B7010E943F
:1003B000D2048E010F5E1F4FCE010596B8010E9438
:1003C000D2048A8991E089278A8BC701B801AE01DE
:1003D000475E5F4F0E9475000E94FD03A096E6E015
:1003E0000C948D1BA0E2B0E0E8EFF1E00C94711BDF
:1003F00069837A838B839C832D833E834F835887C5
:10040000F9E0EF2EF12CEC0EFD1ECE010196B701A6
:100410000E94D2048E010F5E1F4FCE010596B801D7
:100420000E94D204C701B801AE01475E5F4F0E942F
:1004300075000E94FD03A096E6E00C948D1BA0E2DF
:10044000B0E0E5E2F2E00C94651B69837A838B836C
:100450009C832D833E834F835887CE010196BE0136
:10046000675F7F4F0E94D204CE010596BE016F5E8A
:100470007F4F0E94D2049985923088F0898982301A
:10048000C8F0943019F4823051F404C0843029F457
:10049000923081F48AEF90E0C6C0923049F420E0B7
:1004A0009A858A89981321E02A87CE010996BBC0D4
:1004B000823049F420E09A858A89981321E02A8BBA
:1004C000CE014196B0C02D843E844F8458886D88FB
:1004D0007E888F88988CEE24FF248701AA24BB2471
:1004E000650140E050E060E070E0E0E0F0E0C10174
:1004F00081709070892BE9F0E60CF71C081D191D1E
:100500009A01AB012A0D3B1D4C1D5D1D80E090E062
:10051000A0E0B0E0E614F7040805190520F481E036
:1005200090E0A0E0B0E0BA01A901480F591F6A1F8E
:100530007B1FAA0CBB1CCC1CDD1C97FE08C081E0F5
:1005400090E0A0E0B0E0A82AB92ACA2ADB2A3196B6
:10055000E032F10549F0660C771C881C991C569412
:10056000479437942794C3CFFA85EA892B893C892D
:100570008B859C85280F391F2E5F3F4F17C0CA01FE
:1005800081709070892B61F016950795F794E79428
:1005900080E090E0A0E0B0E8E82AF92A0A2B1B2BC3
:1005A00076956795579547952F5F3F4F77FDE7CF36
:1005B0000CC0440F551F661F771F17FD4160EE0CDE
:1005C000FF1C001F111F21503040403090E05907A0
:1005D00090E0690790E4790760F32B8F3C8FDB0193
:1005E000CA018F779070A070B07080349105A1051A
:1005F000B10561F447FD0AC0E114F10401051105DC
:1006000029F0405C5F4F6F4F7F4F40781A8EFE1786
:1006100011F081E08A8F4D8F5E8F6F8F78A383E01A
:10062000898FCE0149960E94FD03A096E2E10C94C9
:10063000811BA8E1B0E0EFE1F3E00C94711B69834A
:100640007A838B839C832D833E834F83588789E0F5
:10065000E82EF12CEC0EFD1ECE010196B7010E9492
:10066000D2048E010F5E1F4FCE010596B8010E9485
:10067000D2048985823040F08989823028F0C70110
:10068000B8010E944A0501C08FEF6896E6E00C941D
:100690008D1BA8E1B0E0EFE4F3E00C94711B6983DB
:1006A0007A838B839C832D833E834F83588789E095
:1006B000E82EF12CEC0EFD1ECE010196B7010E9432
:1006C000D2048E010F5E1F4FCE010596B8010E9425
:1006D000D2048985823040F08989823028F0C701B0
:1006E000B8010E944A0501C08FEF6896E6E00C94BD
:1006F0008D1BA8E1B0E0EFE7F3E00C94711B698378
:100700007A838B839C832D833E834F83588789E034
:10071000E82EF12CEC0EFD1ECE010196B7010E94D1
:10072000D2048E010F5E1F4FCE010596B8010E94C4
:10073000D2048985823040F08989823028F0C7014F
:10074000B8010E944A0501C081E06896E6E00C9479
:100750008D1BACE0B0E0EFEAF3E00C94751B69830D
:100760007A838B839C83CE010196BE016B5F7F4FA2
:100770000E94D2048D81823061F1823050F1843048
:1007800021F48E81882351F12EC02F81388537FDC9
:1007900020C06E812F3131051CF06623F9F023C093
:1007A0008EE190E0821B930B29853A854B855C8511
:1007B00004C056954795379527958A95D2F76623B5
:1007C000B1F050954095309521953F4F4F4F5F4F79
:1007D0000EC020E030E040E050E009C02FEF3FEFD6
:1007E0004FEF5FE704C020E030E040E050E8B9019F
:1007F000CA012C96E2E00C94911BDF92EF92FF92DB
:100800000F931F93FC01E480F58006811781D1804E
:100810008081823048F480E090E0A0E1B0E0E82AF6
:10082000F92A0A2B1B2BA5C0843009F49FC0823003
:1008300021F4EE24FF24870105C0E114F104010531
:10084000110519F4E0E0F0E096C0628173819FEF3A
:10085000623879070CF05BC022E83FEF261B370BAC
:100860002A3131052CF020E030E040E050E02AC091
:10087000B801A701022E04C0769567955795479554
:100880000A94D2F781E090E0A0E0B0E004C0880FC5
:10089000991FAA1FBB1F2A95D2F70197A109B10979
:1008A0008E219F21A023B1230097A105B10521F03E
:1008B00081E090E0A0E0B0E09A01AB01282B392B59
:1008C0004A2B5B2BDA01C9018F779070A070B07052
:1008D00080349105A105B10539F427FF09C0205CDA
:1008E0003F4F4F4F5F4F04C0215C3F4F4F4F5F4F13
:1008F000E0E0F0E02030A0E03A07A0E04A07A0E402
:100900005A0710F0E1E0F0E079018A0127C0603871
:10091000710564F5FB01E158FF4FD801C7018F77DE
:100920009070A070B07080349105A105B10539F4C4
:10093000E7FE0DC080E490E0A0E0B0E004C08FE3EB
:1009400090E0A0E0B0E0E80EF91E0A1F1B1F17FFA1
:1009500005C016950795F794E794319687E01695AC
:100960000795F794E7948A95D1F705C0EE24FF2404
:100970008701EFEFF0E06E2F679566276795902F60
:100980009F77D794DD24D7948E2F8695492F462BB9
:10099000582F5D29B701CA011F910F91FF90EF9069
:1009A000DF900895FC01DB01408151812281622F9B
:1009B0006F7770E0221F2227221F9381892F880FD3
:1009C000822B282F30E0991F9927991F11969C930D
:1009D000119721153105A9F54115510561057105DD
:1009E00011F482E037C082E89FEF13969C938E93B8
:1009F00012979A01AB0167E0220F331F441F551F66
:100A00006A95D1F783E08C930DC0220F331F441FEA
:100A1000551F12968D919C911397019713969C9355
:100A20008E931297203080E0380780E0480780E4FA
:100A3000580758F314962D933D934D935C93179755
:100A400008952F3F310579F4411551056105710570
:100A500019F484E08C93089564FF03C081E08C93C3
:100A600012C01C9210C02F57304013963C932E9307
:100A7000129783E08C9387E0440F551F661F771F02
:100A80008A95D1F7706414964D935D936D937C9322
:100A9000179708951F93DC01FB019C91923008F495
:100AA00047C08081823008F443C0943051F41196DD
:100AB0001C91843099F58181682F70E0611B710968
:100AC0003FC0843021F0923031F48230B9F181811D
:100AD000882389F12DC011961C9111978230F1F075
:100AE00081811817D9F412962D913C911397828128
:100AF00093818217930794F028173907BCF0149656
:100B00008D919D910D90BC91A02D248135814681C0
:100B10005781281739074A075B0718F4112341F05A
:100B20000AC082179307A407B50740F4112319F0F0
:100B300061E070E005C06FEF7FEF02C060E070E041
:100B4000CB011F910895DF93CF93CDB7DEB70E94FD
:100B5000E11A83EC99E00E94F91ACF91DF91089590
:100B6000DF93CF93CDB7DEB78BEB90E00E940B1BEA
:100B7000CF91DF910895DF93CF93CDB7DEB78DE7A7
:100B800090E00E940B1BCF91DF910895DF93CF93EC
:100B900000D000D0CDB7DEB71A82198281E08B83F6
:100BA00086E08C83AFE5B0E0EFE5F0E0808180681F
:100BB0008C9383E060E041E00E94510B83E062E0AF
:100BC00040E00E94510B83E063E040E00E94510B43
:100BD00083E062E041E00E943C0C83E063E041E09E
:100BE0000E943C0C83E060E040E00E943C0CCE019F
:100BF00003960E94EB0A0E941A100E94A3050E940D
:100C000069080E94691A80E690E00E94C21981E09A
:100C100060E00E94EB198FE690E00E94C21980E02C
:100C200060E042E00E94C60981E060E042E00E948C
:100C3000C60980E00E94210B9A83898389819A8169
:100C400021E08F3F920730F083E060E041E00E94B6
:100C50003C0C0BC089819A8121E08F3F920728F4D8
:100C600083E060E040E00E943C0C80910301813011
:100C7000C1F480910201833019F40E94B9060FC0BB
:100C80000E94DD0680910201823011F40E94B906B3
:100C9000809102018F5F809302010E94C80610922A
:100CA000030180910401813021F68091020183309B
:100CB00061F40E94DA0A0E94CB0A809102018150FD
:100CC000809302010E94C80609C00E94DA0A80913E
:100CD00002018150809302010E94C8061092040113
:100CE000A8CF1F920F920FB60F9211248F93AF933C
:100CF000BF93EF93FF93DF93CF93CDB7DEB781E040
:100D000080930301AAE5B0E0EAE5F0E08081806429
:100D10008C93CF91DF91FF91EF91BF91AF918F9124
:100D20000F900FBE0F901F9018951F920F920FB645
:100D30000F9211248F93AF93BF93EF93FF93DF93A1
:100D4000CF93CDB7DEB781E080930401AAE5B0E090
:100D5000EAE5F0E0808180688C93CF91DF91FF918C
:100D6000EF91BF91AF918F910F900FBE0F901F9099
:100D70001895DF93CF93CDB7DEB781E067E00E948F
:100D8000EB1980E890E00E94C219CF91DF9108959D
:100D9000DF93CF93CDB7DEB780E06DE00E94EB1913
:100DA00080910201882F90E00E94461A8AE890E024
:100DB0000E94C219CF91DF910895DF93CF93CDB7F1
:100DC000DEB70E94B00583E062E00E94270D882311
:100DD000D1F30E94BB05CF91DF910895DF93CF93AC
:100DE000CDB7DEB727970FB6F894DEBF0FBECDBFE5
:100DF0009B838A837D836C834E8319821AC0898189
:100E0000282F30E08A819B81FC01E20FF31F408193
:100E10008981282F30E08C819D81FC01E20FF31F36
:100E20008081481719F08AE08F8309C089818F5F1C
:100E3000898399818E81981710F384E18F838F8144
:100E400027960FB6F894DEBF0FBECDBFCF91DF91CE
:100E50000895DF93CF93CDB7DEB7A2970FB6F8947E
:100E6000DEBF0FBECDBF98A38F8F69A34AA31E8E8E
:100E70001EC10E948F0E8D8F8D8D8A3008F087C025
:100E80008E8D282F30E08F8D98A1FC01E20FF31F8B
:100E90008D8D80839AA18E8D980F81E0692F0E949D
:100EA000EB198AE20E94471580E090E0AEE3B3E4DC
:100EB000898F9A8FAB8FBC8F698D7A8D8B8D9C8D2E
:100EC00020E030E04AEF54E40E941F02DC01CB0135
:100ED0008D8B9E8BAF8BB88F6D897E898F89988D16
:100EE00020E030E040E85FE30E94790388232CF49F
:100EF00081E090E09C8B8B8B3FC06D897E898F89D0
:100F0000988D20E03FEF4FE757E40E941903181631
:100F10004CF5698D7A8D8B8D9C8D20E030E040E220
:100F200051E40E941F02DC01CB01BC01CD010E94F3
:100F30004900DC01CB019C8B8B8B0FC088EC90E0CF
:100F40009A8B898B89899A890197F1F79A8B898B7A
:100F50008B899C8901979C8B8B8B8B899C890097B3
:100F600069F7A2C06D897E898F89988D0E9449009A
:100F7000DC01CB019C8B8B8B8B899C89988B8F8719
:100F80008F8598890197F1F7988B8F878DC08D8D0C
:100F90008D3009F086C08E8D81508E8F9AA18E8DF6
:100FA000980F81E0692F0E94EB1980E20E9447159B
:100FB0008E8D81508E8F80E090E0AEE3B3E48B871E
:100FC0009C87AD87BE876B857C858D859E8520E05F
:100FD00030E04AEF54E40E941F02DC01CB018F8312
:100FE0009887A987BA876F81788589859A8520E057
:100FF00030E040E85FE30E94790388232CF481E02D
:1010000090E09E838D833FC06F81788589859A8526
:1010100020E03FEF4FE757E40E94190318164CF504
:101020006B857C858D859E8520E030E040E251E433
:101030000E941F02DC01CB01BC01CD010E944900CE
:10104000DC01CB019E838D830FC088EC90E09C83F4
:101050008B838B819C810197F1F79C838B838D819E
:101060009E8101979E838D838D819E81009769F774
:101070001BC06F81788589859A850E944900DC01B3
:10108000CB019E838D838D819E819A838983898103
:101090009A810197F1F79A83898306C00E948F0E87
:1010A0008D8F8D8D8B30D0F78E8D8F5F8E8F9E8D37
:1010B00089A1981708F4DDCE0E948F0E8D33E1F7D9
:1010C000A2960FB6F894DEBF0FBECDBFCF91DF91D1
:1010D0000895DF93CF93CDB7DEB7A7970FB6F894F7
:1010E000DEBF0FBECDBF85E0FE017E96DF01982FEB
:1010F0001D929A95E9F785E0FE01B396DF01982FDE
:101100001D929A95E9F70E94691A8DE890E00E9475
:10111000C21985E090E00E94461A89E990E00E9499
:10112000C219CE014E9665E040E00E9429070E9458
:10113000691A8EE990E00E94C2192FEA30E081E03E
:1011400060E0A9010E942D1ACE01839665E04BE074
:101150000E942907CE014E969E012D5D3F4FB90199
:1011600045E00E94EE068D8F8D8D8A3009F082C099
:101170000E94691A8BEB90E00E94C2192CEC30E0BF
:1011800081E060E0A9010E942D1A80E090E8ABE3C5
:10119000B5E4898F9A8FAB8FBC8F698D7A8D8B8DDB
:1011A0009C8D20E030E04AEF54E40E941F02DC01F5
:1011B000CB018D8B9E8BAF8BB88F6D897E898F898C
:1011C000988D20E030E040E85FE30E9479038823B7
:1011D0002CF481E090E09C8B8B8B3FC06D897E89E5
:1011E0008F89988D20E03FEF4FE757E40E94190365
:1011F00018164CF5698D7A8D8B8D9C8D20E030E032
:1012000040E251E40E941F02DC01CB01BC01CD0190
:101210000E944900DC01CB019C8B8B8B0FC088ECBA
:1012200090E09A8B898B89899A890197F1F79A8B3B
:10123000898B8B899C8901979C8B8B8B8B899C8953
:10124000009769F714C06D897E898F89988D0E94F7
:101250004900DC01CB019C8B8B8B8B899C89988B03
:101260008F878F8598890197F1F7988B8F870E94D8
:10127000690883C08D8D843109F07FC00E94691A8E
:1012800082ED90E00E94C21923EE30E081E060E040
:10129000A9010E942D1A80E090E8ABEBB4E48B87A3
:1012A0009C87AD87BE876B857C858D859E8520E07C
:1012B00030E04AEF54E40E941F02DC01CB018F832F
:1012C0009887A987BA876F81788589859A8520E074
:1012D00030E040E85FE30E94790388232CF481E04A
:1012E00090E09E838D833FC06F81788589859A8544
:1012F00020E03FEF4FE757E40E94190318164CF522
:101300006B857C858D859E8520E030E040E251E450
:101310000E941F02DC01CB01BC01CD010E944900EB
:10132000DC01CB019E838D830FC088EC90E09C8311
:101330008B838B819C810197F1F79C838B838D81BB
:101340009E8101979E838D838D819E81009769F791
:1013500014C06F81788589859A850E944900DC01D7
:10136000CB019E838D838D819E819A838983898120
:101370009A810197F1F79A838983A7960FB6F8941B
:10138000DEBF0FBECDBFCF91DF910895DF93CF9326
:10139000CDB7DEB729970FB6F894DEBF0FBECDBF2D
:1013A00089836A834B838981282F30E03987288796
:1013B00088859985009739F0288539852130310550
:1013C00009F471C0DFC0ABE5B0E0EBE5F0E080818F
:1013D00080648C938A81882331F483E062E040E06A
:1013E0000E94510B05C083E062E041E00E94510B76
:1013F0008B81282F30E03F832E838E819F81813027
:10140000910521F12E813F81223031052CF48E810E
:101410009F81009761F0B6C02E813F812230310557
:1014200021F18E819F818330910571F1ABC0A5E5DB
:10143000B0E0E5E5F0E080818E7F8C93A5E5B0E03B
:10144000E5E5F0E080818D7F8C939CC0A5E5B0E060
:10145000E5E5F0E080818D7F8C93A5E5B0E0E5E5E2
:10146000F0E0808181608C938DC0A5E5B0E0E5E57A
:10147000F0E080818E7F8C93A5E5B0E0E5E5F0E0BB
:10148000808182608C937EC0A5E5B0E0E5E5F0E068
:10149000808181608C93A5E5B0E0E5E5F0E0808196
:1014A00082608C936FC0ABE5B0E0EBE5F0E080814B
:1014B00080688C938A81882331F483E063E040E084
:1014C0000E94510B05C083E063E041E00E94510B94
:1014D0008B81282F30E03D832C838C819D8181304E
:1014E000910521F12C813D81223031052CF48C8134
:1014F0009D81009761F046C02C813D8122303105ED
:1015000021F18C819D818330910571F13BC0A5E56E
:10151000B0E0E5E5F0E080818B7F8C93A5E5B0E05D
:10152000E5E5F0E08081877F8C932CC0A5E5B0E0F5
:10153000E5E5F0E08081877F8C93A5E5B0E0E5E507
:10154000F0E0808184608C931DC0A5E5B0E0E5E506
:10155000F0E080818B7F8C93A5E5B0E0E5E5F0E0DD
:10156000808188608C930EC0A5E5B0E0E5E5F0E0F1
:10157000808184608C93A5E5B0E0E5E5F0E08081B2
:1015800088608C9329960FB6F894DEBF0FBECDBF4E
:10159000CF91DF910895DF93CF93CDB7DEB781E090
:1015A00067E00E94EB1980EF90E00E94C219CF9192
:1015B000DF910895DF93CF93CDB7DEB70E94B005DA
:1015C00083E063E00E94270D8823D1F30E94BB05CE
:1015D000CF91DF910895DF93CF9300D0CDB7DEB7E1
:1015E0009A838983A7E2B0E0E7E2F0E08081282FC8
:1015F0002F73E981FA818081882F90E000249695ED
:1016000087950794969587950794982F802D822B20
:101610008C93A6E2B0E0E6E2F0E08081982F987F1C
:10162000E981FA818181892B8C93A6E2B0E0E6E220
:10163000F0E0808180688C930F900F90CF91DF91C4
:101640000895DF93CF930F92CDB7DEB78983A7E2DA
:10165000B0E0E7E2F0E08081982F907E89818F7181
:10166000892B8C93A6E2B0E0E6E2F0E08081806412
:101670008C93E6E2F0E08081882F90E0807190709A
:101680000097B9F3A6E2B0E0E6E2F0E08081806185
:101690008C93E4E2F0E0808191810F90CF91DF9113
:1016A0000895DF93CF9300D000D00F92CDB7DEB76F
:1016B00089836A834B838A81883008F0D5C0898109
:1016C000843008F0D1C08981282F30E03D832C83FD
:1016D0008C819D818130910509F443C02C813D812D
:1016E000223031052CF48C819D81009771F0BCC0B3
:1016F0002C813D812230310509F45FC08C819D81B0
:101700008330910509F485C0AFC08B818130A1F48D
:10171000AAE3B0E0EAE3F0E08081482F8A81282F35
:1017200030E081E090E0022E02C0880F991F0A94F9
:10173000E2F7842B8C9398C0AAE3B0E0EAE3F0E0F0
:101740008081482F8A81282F30E081E090E0022EAE
:1017500002C0880F991F0A94E2F7809584238C9326
:1017600083C08B818130A1F4A7E3B0E0E7E3F0E030
:101770008081482F8A81282F30E081E090E0022E7E
:1017800002C0880F991F0A94E2F7842B8C936CC0D7
:10179000A7E3B0E0E7E3F0E08081482F8A81282FBB
:1017A00030E081E090E0022E02C0880F991F0A9479
:1017B000E2F7809584238C9357C08B818130A1F40C
:1017C000A4E3B0E0E4E3F0E08081482F8A81282F91
:1017D00030E081E090E0022E02C0880F991F0A9449
:1017E000E2F7842B8C9340C0A4E3B0E0E4E3F0E0A4
:1017F0008081482F8A81282F30E081E090E0022EFE
:1018000002C0880F991F0A94E2F7809584238C9375
:101810002BC08B818130A1F4A1E3B0E0E1E3F0E0E3
:101820008081482F8A81282F30E081E090E0022ECD
:1018300002C0880F991F0A94E2F7842B8C9314C07E
:10184000A1E3B0E0E1E3F0E08081482F8A81282F16
:1018500030E081E090E0022E02C0880F991F0A94C8
:10186000E2F7809584238C930F900F900F900F9048
:101870000F90CF91DF910895DF93CF9300D000D0E8
:101880000F92CDB7DEB789836A834B838A81883014
:1018900008F0D5C08981843008F0D1C08981282F13
:1018A00030E03D832C838C819D818130910509F44A
:1018B00043C02C813D81223031052CF48C819D81E7
:1018C000009771F0BCC02C813D812230310509F4B4
:1018D0005FC08C819D818330910509F485C0AFC0C4
:1018E0008B818130A1F4ABE3B0E0EBE3F0E08081E9
:1018F000482F8A81282F30E081E090E0022E02C03C
:10190000880F991F0A94E2F7842B8C9398C0ABE35D
:10191000B0E0EBE3F0E08081482F8A81282F30E0AF
:1019200081E090E0022E02C0880F991F0A94E2F72E
:10193000809584238C9383C08B818130A1F4A8E3AC
:10194000B0E0E8E3F0E08081482F8A81282F30E082
:1019500081E090E0022E02C0880F991F0A94E2F7FE
:10196000842B8C936CC0A8E3B0E0E8E3F0E08081C6
:10197000482F8A81282F30E081E090E0022E02C0BB
:10198000880F991F0A94E2F7809584238C9357C09F
:101990008B818130A1F4A5E3B0E0E5E3F0E0808144
:1019A000482F8A81282F30E081E090E0022E02C08B
:1019B000880F991F0A94E2F7842B8C9340C0A5E30B
:1019C000B0E0E5E3F0E08081482F8A81282F30E005
:1019D00081E090E0022E02C0880F991F0A94E2F77E
:1019E000809584238C932BC08B818130A1F4A2E35A
:1019F000B0E0E2E3F0E08081482F8A81282F30E0D8
:101A000081E090E0022E02C0880F991F0A94E2F74D
:101A1000842B8C9314C0A2E3B0E0E2E3F0E0808179
:101A2000482F8A81282F30E081E090E0022E02C00A
:101A3000880F991F0A94E2F7809584238C930F9066
:101A40000F900F900F900F90CF91DF910895DF933B
:101A5000CF9300D000D00F92CDB7DEB78A836B83CF
:101A600019828B81883008F084C08A81843008F024
:101A700080C08A81282F30E03D832C834C815D819A
:101A80004130510579F18C819D818230910534F48A
:101A90002C813D812115310569F06BC04C815D8140
:101AA00042305105B9F18C819D818330910509F453
:101AB00049C05FC0E9E3F0E08081282F30E08B81EE
:101AC000882F90E0A90102C0559547958A95E2F7C5
:101AD000CA0181709070882319F081E0898349C020
:101AE000198247C0E6E3F0E08081282F30E08B8147
:101AF000882F90E0A90102C0559547958A95E2F795
:101B0000CA0181709070882319F081E0898331C007
:101B100019822FC0E3E3F0E08081282F30E08B8131
:101B2000882F90E0A90102C0559547958A95E2F764
:101B3000CA0181709070882319F081E0898319C0EF
:101B4000198217C0E0E3F0E08081282F30E08B811C
:101B5000882F90E0A90102C0559547958A95E2F734
:101B6000CA0181709070882319F081E0898301C0D7
:101B7000198289810F900F900F900F900F90CF9145
:101B8000DF910895DF93CF9300D000D0CDB7DEB7BB
:101B900089836A838981843090F58981282F30E098
:101BA0003C832B838B819C8181309105D1F02B81EB
:101BB0003C81223031052CF48B819C81009761F0AF
:101BC0001EC02B813C812230310581F08B819C81AC
:101BD0008330910581F013C0EAE3F0E08A818083CD
:101BE0000EC0E7E3F0E08A81808309C0E4E3F0E01F
:101BF0008A81808304C0E1E3F0E08A8180830F90D2
:101C00000F900F900F90CF91DF910895DF93CF93B6
:101C100000D000D0CDB7DEB789836A838981843054
:101C200090F58981282F30E03C832B838B819C8128
:101C300081309105D1F02B813C81223031052CF48B
:101C40008B819C81009761F01EC02B813C812230EA
:101C5000310581F08B819C818330910581F013C027
:101C6000EBE3F0E08A8180830EC0E8E3F0E08A8154
:101C7000808309C0E5E3F0E08A81808304C0E2E369
:101C8000F0E08A8180830F900F900F900F90CF919A
:101C9000DF910895DF93CF9300D000D0CDB7DEB7AA
:101CA0008A8319828A81843090F58A81282F30E0D6
:101CB0003C832B838B819C8181309105D1F02B81DA
:101CC0003C81223031052CF48B819C81009761F09E
:101CD0001EC02B813C812230310581F08B819C819B
:101CE0008330910581F013C0E9E3F0E080818983BE
:101CF0000EC0E6E3F0E08081898309C0E3E3F0E011
:101D00008081898304C0E0E3F0E080818983898158
:101D10000F900F900F900F90CF91DF910895DF9368
:101D2000CF93CDB7DEB760970FB6F894DEBF0FBE86
:101D3000CDBF82E060E040E00E94510B82E061E0B4
:101D400040E00E94510B82E062E040E00E94510BB3
:101D500082E063E040E00E94510B82E064E040E0FA
:101D60000E94510B82E065E040E00E94510B82E04E
:101D700066E040E00E94510B82E067E040E00E9494
:101D8000510B1F86ABC082E06F8541E00E94510B72
:101D900082E06F8540E00E943C0C188A22C088894E
:101DA000982F9C5F82E0692F0E94270D8823B1F451
:101DB0008F85882F90E0880F991F880F991F982F83
:101DC0008889890F8F5F0E94730F60960FB6F89411
:101DD000DEBF0FBECDBFCF91DF91089588898F5FA1
:101DE000888B88898430D8F282E06F8540E00E9439
:101DF000510B80E090E0A0EAB0E48B879C87AD8730
:101E0000BE876B857C858D859E8520E030E04AEF1E
:101E100054E40E941F02DC01CB018F839887A987BD
:101E2000BA876F81788589859A8520E030E040E81F
:101E30005FE30E94790388232CF481E090E09E8385
:101E40008D833FC06F81788589859A8520E03FEF3B
:101E50004FE757E40E94190318164CF56B857C85F3
:101E60008D859E8520E030E040E251E40E941F0213
:101E7000DC01CB01BC01CD010E944900DC01CB019A
:101E80009E838D830FC088EC90E09C838B838B8135
:101E90009C810197F1F79C838B838D819E810197B3
:101EA0009E838D838D819E81009769F714C06F8119
:101EB000788589859A850E944900DC01CB019E8343
:101EC0008D838D819E819A83898389819A810197EF
:101ED000F1F79A8389838F858F5F8F878F85843011
:101EE00008F451CF4ECFDF93CF9300D000D0CDB7C1
:101EF000DEB78A8319828A81282F30E03C832B83C6
:101F00008B819C818830910509F470C02B813C81C4
:101F1000293031055CF58B819C818430910509F471
:101F200059C02B813C81253031059CF48B819C81EB
:101F30008230910509F448C02B813C812330310562
:101F40000CF045C08B819C818130910509F439C02A
:101F500067C02B813C812630310509F441C08B815B
:101F60009C81873091050CF03EC037C02B813C81AD
:101F70002C30310509F446C08B819C818D30910550
:101F80005CF42B813C812A303105B1F18B819C813D
:101F90008B309105A4F52DC02B813C812E3031056D
:101FA000B9F18B819C818E3091057CF12B813C8134
:101FB0002F30310579F18B819C818031910569F158
:101FC0002FC087E089832EC088E089832BC089E0F9
:101FD000898328C085E2898325C084E0898322C063
:101FE00085E089831FC086E089831CC08AE28983DB
:101FF00019C081E0898316C082E0898313C083E021
:10200000898310C08DE289830DC08DE089830AC069
:10201000198208C08DE3898305C08BE2898302C0E1
:102020008A81898389810F900F900F900F90CF91B3
:10203000DF910895DF93CF93CDB7DEB72E970FB61C
:10204000F894DEBF0FBECDBF81E061E041E00E94A9
:10205000510B81E060E041E00E94510B80E090E094
:10206000A0EAB1E48B879C87AD87BE876B857C85B2
:102070008D859E8520E030E04AEF54E40E941F02E7
:10208000DC01CB018F839887A987BA876F81788518
:1020900089859A8520E030E040E85FE30E9479037B
:1020A00088232CF481E090E09E838D833FC06F8174
:1020B000788589859A8520E03FEF4FE757E40E94B5
:1020C000190318164CF56B857C858D859E8520E05F
:1020D00030E040E251E40E941F02DC01CB01BC0170
:1020E000CD010E944900DC01CB019E838D830FC08E
:1020F00088EC90E09C838B838B819C810197F1F726
:102100009C838B838D819E8101979E838D838D819E
:102110009E81009769F714C06F81788589859A85BB
:102120000E944900DC01CB019E838D838D819E81BD
:102130009A83898389819A810197F1F79A838983A8
:1021400080E064E041E00E94510B80E065E041E006
:102150000E94510B80E066E041E00E94510B80E05C
:1021600067E041E00E94510B83E30E94CC1082E3C0
:102170000E94CC1088E20E94CC108CE00E94CC100F
:1021800081E00E94CC102E960FB6F894DEBF0FBEF1
:10219000CDBFCF91DF9108950F931F93DF93CF931E
:1021A000CDB7DEB7C356D0400FB6F894DEBF0FBE32
:1021B000CDBFFE01ED59FF4F808381E061E040E03B
:1021C0000E943C0CFE01E15AFF4F80E090E0A0E845
:1021D000BFE380839183A283B3838E01055A1F4F8F
:1021E000FE01E15AFF4F608171818281938120E07D
:1021F00030E04AEF54E40E941F02DC01CB01F801F9
:1022000080839183A283B383FE01E55AFF4F6081EF
:1022100071818281938120E030E040E85FE30E9499
:102220007903882344F4FE01E75AFF4F81E090E0F0
:102230009183808364C0FE01E55AFF4F6081718104
:102240008281938120E03FEF4FE757E40E9419031A
:1022500018160CF043C0FE01E15AFF4F60817181F6
:102260008281938120E030E040E251E40E941F022D
:10227000DC01CB018E01075A1F4FBC01CD010E942A
:102280004900DC01CB01F801918380831FC0FE016E
:10229000E95AFF4F88EC90E091838083FE01E95A70
:1022A000FF4F808191810197F1F7FE01E95AFF4FBD
:1022B00091838083DE01A75ABF4FFE01E75AFF4F8B
:1022C00080819181019711969C938E93FE01E75A2C
:1022D000FF4F808191810097D1F627C08E01075A68
:1022E0001F4FFE01E55AFF4F60817181828193810A
:1022F0000E944900DC01CB01F80191838083DE015B
:10230000AB5ABF4FFE01E75AFF4F808191818D93F9
:102310009C93FE01EB5AFF4F808191810197F1F769
:10232000FE01EB5AFF4F9183808381E060E041E042
:102330000E943C0CFE01EF5AFF4F80E090E0A0E8C5
:10234000BFE380839183A283B3838E01035B1F4F1E
:10235000FE01EF5AFF4F608171818281938120E0FD
:1023600030E04AEF54E40E941F02DC01CB01F80187
:1023700080839183A283B383FE01E35BFF4F60817F
:1023800071818281938120E030E040E85FE30E9428
:102390007903882344F4FE01E55BFF4F81E090E080
:1023A0009183808364C0FE01E35BFF4F6081718194
:1023B0008281938120E03FEF4FE757E40E941903A9
:1023C00018160CF043C0FE01EF5AFF4F6081718177
:1023D0008281938120E030E040E251E40E941F02BC
:1023E000DC01CB018E01055B1F4FBC01CD010E94BA
:1023F0004900DC01CB01F801918380831FC0FE01FD
:10240000E75BFF4F88EC90E091838083FE01E75B00
:10241000FF4F808191810197F1F7FE01E75BFF4F4C
:1024200091838083DE01A55BBF4FFE01E55BFF4F1B
:1024300080819181019711969C938E93FE01E55BBB
:10244000FF4F808191810097D1F627C08E01055BF7
:102450001F4FFE01E35BFF4F608171818281938199
:102460000E944900DC01CB01F80191838083DE01E9
:10247000A95BBF4FFE01E55BFF4F808191818D938A
:102480009C93FE01E95BFF4F808191810197F1F7F9
:10249000FE01E95BFF4F91838083FE01ED59FF4F01
:1024A0008081882F90E080719070959587959595A3
:1024B00087959595879595958795982F80E064E009
:1024C000492F0E943C0CFE01ED59FF4F8081882F5F
:1024D00090E08072907095958795959587959595E4
:1024E00087959595879595958795982F80E065E0D8
:1024F000492F0E943C0CFE01ED59FF4F8081882F2F
:1025000090E080749070082E892F000C881F990B22
:10251000000C881F991F982F80E066E0492F0E94C9
:102520003C0CFE01ED59FF4F8081982F991F992790
:10253000991F80E067E0492F0E943C0CFE01ED5B93
:10254000FF4F80E090E0A0E8BFE380839183A28307
:10255000B3838E01015C1F4FFE01ED5BFF4F608175
:1025600071818281938120E030E04AEF54E40E943F
:102570001F02DC01CB01F80180839183A283B38326
:10258000FE01FF96608171818281938120E030E0BD
:1025900040E85FE30E94790388232CF481E090E017
:1025A0009EAF8DAF46C0FE01FF9660817181828132
:1025B000938120E03FEF4FE757E40E94190318167C
:1025C00064F5FE01ED5BFF4F608171818281938133
:1025D00020E030E040E251E40E941F02DC01CB0128
:1025E000BC01CD010E944900DC01CB019EAF8DAF43
:1025F0000FC088EC90E09CAF8BAF8BAD9CAD01978A
:10260000F1F79CAF8BAF8DAD9EAD01979EAF8DAFB7
:102610008DAD9EAD009769F716C0FE01FF966081F3
:102620007181828193810E944900DC01CB019EAFC0
:102630008DAF8DAD9EAD9AAF89AF89AD9AAD019743
:10264000F1F79AAF89AF81E060E040E00E943C0C76
:1026500080E090E0A0E8BFE38DAB9EABAFABB8AF3E
:102660006DA97EA98FA998AD20E030E04AEF54E42F
:102670000E941F02DC01CB0189AB9AABABABBCABB8
:1026800069A97AA98BA99CA920E030E040E85FE322
:102690000E94790388232CF481E090E098AB8FA707
:1026A0003FC069A97AA98BA99CA920E03FEF4FE719
:1026B00057E40E94190318164CF56DA97EA98FA93D
:1026C00098AD20E030E040E251E40E941F02DC01BE
:1026D000CB01BC01CD010E944900DC01CB0198ABCC
:1026E0008FA70FC088EC90E09EA78DA78DA59EA513
:1026F0000197F1F79EA78DA78FA598A9019798AB91
:102700008FA78FA598A9009769F714C069A97AA91E
:102710008BA99CA90E944900DC01CB0198AB8FA733
:102720008FA598A99CA78BA78BA59CA50197F1F7CE
:102730009CA78BA781E060E041E00E943C0C80E018
:1027400090E0A0E8BFE38FA398A7A9A7BAA76FA1BD
:1027500078A589A59AA520E030E04AEF54E40E94CC
:102760001F02DC01CB018BA39CA3ADA3BEA36BA175
:102770007CA18DA19EA120E030E040E85FE30E94B3
:10278000790388232CF481E090E09AA389A33FC0C9
:102790006BA17CA18DA19EA120E03FEF4FE757E404
:1027A0000E94190318164CF56FA178A589A59AA562
:1027B00020E030E040E251E40E941F02DC01CB0146
:1027C000BC01CD010E944900DC01CB019AA389A381
:1027D0000FC088EC90E098A38F8F8F8D98A1019700
:1027E000F1F798A38F8F89A19AA101979AA389A342
:1027F00089A19AA1009769F714C06BA17CA18DA152
:102800009EA10E944900DC01CB019AA389A389A162
:102810009AA19E8F8D8F8D8D9E8D0197F1F79E8F42
:102820008D8FFE01ED59FF4F8081982F917080E0D0
:1028300064E0492F0E943C0CFE01ED59FF4F80815E
:10284000882F90E08270907095958795982F80E002
:1028500065E0492F0E943C0CFE01ED59FF4F80813D
:10286000882F90E0847090709595879595958795C1
:10287000982F80E066E0492F0E943C0CFE01ED5944
:10288000FF4F8081882F90E0887090709595879594
:102890009595879595958795982F80E067E0492FC6
:1028A0000E943C0C80E090E0A0E8BFE3898F9A8F03
:1028B000AB8FBC8F698D7A8D8B8D9C8D20E030E045
:1028C0004AEF54E40E941F02DC01CB018D8B9E8BEA
:1028D000AF8BB88F6D897E898F89988D20E030E02D
:1028E00040E85FE30E94790388232CF481E090E0C4
:1028F0009C8B8B8B3FC06D897E898F89988D20E062
:102900003FEF4FE757E40E94190318164CF5698D05
:102910007A8D8B8D9C8D20E030E040E251E40E9466
:102920001F02DC01CB01BC01CD010E944900DC018A
:10293000CB019C8B8B8B0FC088EC90E09A8B898BA2
:1029400089899A890197F1F79A8B898B8B899C8960
:1029500001979C8B8B8B8B899C89009769F714C09E
:102960006D897E898F89988D0E944900DC01CB0199
:102970009C8B8B8B8B899C89988B8F878F85988973
:102980000197F1F7988B8F8781E060E040E00E942B
:102990003C0C80E090E0A0E8BFE38B879C87AD878C
:1029A000BE876B857C858D859E8520E030E04AEF73
:1029B00054E40E941F02DC01CB018F839887A98712
:1029C000BA876F81788589859A8520E030E040E874
:1029D0005FE30E94790388232CF481E090E09E83DA
:1029E0008D833FC06F81788589859A8520E03FEF90
:1029F0004FE757E40E94190318164CF56B857C8548
:102A00008D859E8520E030E040E251E40E941F0267
:102A1000DC01CB01BC01CD010E944900DC01CB01EE
:102A20009E838D830FC088EC90E09C838B838B8189
:102A30009C810197F1F79C838B838D819E81019707
:102A40009E838D838D819E81009769F714C06F816D
:102A5000788589859A850E944900DC01CB019E8397
:102A60008D838D819E819A83898389819A81019743
:102A7000F1F79A838983CD59DF4F0FB6F894DEBF03
:102A80000FBECDBFCF91DF911F910F9108950F938E
:102A90001F93DF93CF93CDB7DEB7C356D0400FB6A9
:102AA000F894DEBF0FBECDBFFE01ED59FF4F80830E
:102AB00081E061E041E00E943C0CFE01E15AFF4FE1
:102AC00080E090E0A0E8BFE380839183A283B3839A
:102AD0008E01055A1F4FFE01E15AFF4F608171813F
:102AE0008281938120E030E04AEF54E40E941F028B
:102AF000DC01CB01F80180839183A283B383FE01C3
:102B0000E55AFF4F608171818281938120E030E03E
:102B100040E85FE30E947903882344F4FE01E75A0A
:102B2000FF4F81E090E09183808364C0FE01E55A0D
:102B3000FF4F608171818281938120E03FEF4FE7F9
:102B400057E40E94190318160CF043C0FE01E15A25
:102B5000FF4F608171818281938120E030E040E20B
:102B600051E40E941F02DC01CB018E01075A1F4F66
:102B7000BC01CD010E944900DC01CB01F801918329
:102B800080831FC0FE01E95AFF4F88EC90E09183DB
:102B90008083FE01E95AFF4F808191810197F1F70F
:102BA000FE01E95AFF4F91838083DE01A75ABF4F90
:102BB000FE01E75AFF4F80819181019711969C9306
:102BC0008E93FE01E75AFF4F808191810097D1F6E5
:102BD00027C08E01075A1F4FFE01E55AFF4F608143
:102BE0007181828193810E944900DC01CB01F8014F
:102BF00091838083DE01AB5ABF4FFE01E75AFF4F3E
:102C0000808191818D939C93FE01EB5AFF4F8081CF
:102C100091810197F1F7FE01EB5AFF4F9183808379
:102C200081E060E041E00E943C0CFE01EF5AFF4F62
:102C300080E090E0A0E8BFE380839183A283B38328
:102C40008E01035B1F4FFE01EF5AFF4F60817181C0
:102C50008281938120E030E04AEF54E40E941F0219
:102C6000DC01CB01F80180839183A283B383FE0151
:102C7000E35BFF4F608171818281938120E030E0CE
:102C800040E85FE30E947903882344F4FE01E55B9A
:102C9000FF4F81E090E09183808364C0FE01E35B9D
:102CA000FF4F608171818281938120E03FEF4FE788
:102CB00057E40E94190318160CF043C0FE01EF5AA6
:102CC000FF4F608171818281938120E030E040E29A
:102CD00051E40E941F02DC01CB018E01055B1F4FF6
:102CE000BC01CD010E944900DC01CB01F8019183B8
:102CF00080831FC0FE01E75BFF4F88EC90E091836B
:102D00008083FE01E75BFF4F808191810197F1F79E
:102D1000FE01E75BFF4F91838083DE01A55BBF4F20
:102D2000FE01E55BFF4F80819181019711969C9395
:102D30008E93FE01E55BFF4F808191810097D1F674
:102D400027C08E01055B1F4FFE01E35BFF4F6081D3
:102D50007181828193810E944900DC01CB01F801DD
:102D600091838083DE01A95BBF4FFE01E55BFF4FCE
:102D7000808191818D939C93FE01E95BFF4F80815F
:102D800091810197F1F7FE01E95BFF4F9183808309
:102D9000FE01ED59FF4F8081882F90E08071907087
:102DA000959587959595879595958795959587950B
:102DB000982F80E064E0492F0E943C0CFE01ED5901
:102DC000FF4F8081882F90E0807290709595879555
:102DD00095958795959587959595879595958795DB
:102DE000982F80E065E0492F0E943C0CFE01ED59D0
:102DF000FF4F8081882F90E080749070082E892F7B
:102E0000000C881F990B000C881F991F982F80E0D9
:102E100066E0492F0E943C0CFE01ED59FF4F808176
:102E2000982F991F9927991F80E067E0492F0E94EA
:102E30003C0CFE01ED5BFF4F80E090E0A0E8BFE3BB
:102E400080839183A283B3838E01015C1F4FFE01B7
:102E5000ED5BFF4F608171818281938120E030E0E2
:102E60004AEF54E40E941F02DC01CB01F801808389
:102E70009183A283B383FE01FF9660817181828179
:102E8000938120E030E040E85FE30E9479038823EB
:102E90002CF481E090E09EAF8DAF46C0FE01FF961E
:102EA000608171818281938120E03FEF4FE757E499
:102EB0000E941903181664F5FE01ED5BFF4F608157
:102EC00071818281938120E030E040E251E40E94F0
:102ED0001F02DC01CB01BC01CD010E944900DC01D5
:102EE000CB019EAF8DAF0FC088EC90E09CAF8BAF55
:102EF0008BAD9CAD0197F1F79CAF8BAF8DAD9EADC7
:102F000001979EAF8DAF8DAD9EAD009769F716C04E
:102F1000FE01FF9660817181828193810E94490048
:102F2000DC01CB019EAF8DAF8DAD9EAD9AAF89AF69
:102F300089AD9AAD0197F1F79AAF89AF81E060E072
:102F400040E00E943C0C80E090E0A0E8BFE38DAB45
:102F50009EABAFABB8AF6DA97EA98FA998AD20E0AD
:102F600030E04AEF54E40E941F02DC01CB0189AB40
:102F70009AABABABBCAB69A97AA98BA99CA920E0A1
:102F800030E040E85FE30E94790388232CF481E07D
:102F900090E098AB8FA73FC069A97AA98BA99CA99B
:102FA00020E03FEF4FE757E40E94190318164CF555
:102FB0006DA97EA98FA998AD20E030E040E251E4F0
:102FC0000E941F02DC01CB01BC01CD010E9449001F
:102FD000DC01CB0198AB8FA70FC088EC90E09EA7D7
:102FE0008DA78DA59EA50197F1F79EA78DA78FA50B
:102FF00098A9019798AB8FA78FA598A9009769F713
:1030000014C069A97AA98BA99CA90E944900DC0176
:10301000CB0198AB8FA78FA598A99CA78BA78BA551
:103020009CA50197F1F79CA78BA781E060E041E0A8
:103030000E943C0C80E090E0A0E8BFE38FA398A73B
:10304000A9A7BAA76FA178A589A59AA520E030E025
:103050004AEF54E40E941F02DC01CB018BA39CA326
:10306000ADA3BEA36BA17CA18DA19EA120E030E009
:1030700040E85FE30E94790388232CF481E090E02C
:103080009AA389A33FC06BA17CA18DA19EA120E042
:103090003FEF4FE757E40E94190318164CF56FA154
:1030A00078A589A59AA520E030E040E251E40E948D
:1030B0001F02DC01CB01BC01CD010E944900DC01F3
:1030C000CB019AA389A30FC088EC90E098A38F8FBF
:1030D0008F8D98A10197F1F798A38F8F89A19AA15D
:1030E00001979AA389A389A19AA1009769F714C0AF
:1030F0006BA17CA18DA19EA10E944900DC01CB01A6
:103100009AA389A389A19AA19E8F8D8F8D8D9E8D63
:103110000197F1F79E8F8D8FFE01ED59FF4F808152
:10312000982F917080E064E0492F0E943C0CFE01D2
:10313000ED59FF4F8081882F90E0827090709595B7
:103140008795982F80E065E0492F0E943C0CFE0196
:10315000ED59FF4F8081882F90E084709070959595
:10316000879595958795982F80E066E0492F0E9476
:103170003C0CFE01ED59FF4F8081882F90E0887054
:103180009070959587959595879595958795982FA6
:1031900080E067E0492F0E943C0C80E090E0A0E8CE
:1031A000BFE3898F9A8FAB8FBC8F698D7A8D8B8DA2
:1031B0009C8D20E030E04AEF54E40E941F02DC01C5
:1031C000CB018D8B9E8BAF8BB88F6D897E898F895C
:1031D000988D20E030E040E85FE30E947903882387
:1031E0002CF481E090E09C8B8B8B3FC06D897E89B5
:1031F0008F89988D20E03FEF4FE757E40E94190335
:1032000018164CF5698D7A8D8B8D9C8D20E030E001
:1032100040E251E40E941F02DC01CB01BC01CD0160
:103220000E944900DC01CB019C8B8B8B0FC088EC8A
:1032300090E09A8B898B89899A890197F1F79A8B0B
:10324000898B8B899C8901979C8B8B8B8B899C8923
:10325000009769F714C06D897E898F89988D0E94C7
:103260004900DC01CB019C8B8B8B8B899C89988BD3
:103270008F878F8598890197F1F7988B8F8781E0E9
:1032800060E040E00E943C0C80E090E0A0E8BFE3FA
:103290008B879C87AD87BE876B857C858D859E855A
:1032A00020E030E04AEF54E40E941F02DC01CB0131
:1032B0008F839887A987BA876F81788589859A8552
:1032C00020E030E040E85FE30E94790388232CF49B
:1032D00081E090E09E838D833FC06F8178858985F2
:1032E0009A8520E03FEF4FE757E40E941903181634
:1032F0004CF56B857C858D859E8520E030E040E235
:1033000051E40E941F02DC01CB01BC01CD010E94EF
:103310004900DC01CB019E838D830FC088EC90E0D7
:103320009C838B838B819C810197F1F79C838B839A
:103330008D819E8101979E838D838D819E810097D3
:1033400069F714C06F81788589859A850E94490044
:10335000DC01CB019E838D838D819E819A8389833D
:1033600089819A810197F1F79A838983CD59DF4F3B
:103370000FB6F894DEBF0FBECDBFCF91DF911F9186
:103380000F910895DF93CF9300D00F92CDB7DEB7A2
:103390009B838A8319820EC08981282F30E08A811D
:1033A0009B81FC01E20FF31F80810E9447158981F8
:1033B0008F5F89838981282F30E08A819B81FC017E
:1033C000E20FF31F8081882339F70F900F900F9041
:1033D000CF91DF910895DF93CF9300D000D00F926B
:1033E000CDB7DEB78A836B838A81282F30E03D8397
:1033F0002C838C819D8181309105C1F02C813D8190
:10340000223031052CF48C819D81009761F019C028
:103410002C813D812230310569F08C819D81833082
:10342000910561F00EC08B8189830BC08B81805C1C
:10343000898307C08B81805F898303C08B81805B18
:103440008983898180680E94CC100F900F900F9023
:103450000F900F90CF91DF910895DF93CF9300D01D
:1034600000D0CDB7DEB789836A835C834B838981C3
:103470006A810E94EB198B819C810E94C2190F9076
:103480000F900F900F90CF91DF910895DF93CF931E
:10349000CDB7DEB762970FB6F894DEBF0FBECDBFD3
:1034A0009A8B898B89899A899E012F5F3F4FB90139
:1034B0004AE050E00E949C1BCE0101960E94C21976
:1034C00062960FB6F894DEBF0FBECDBFCF91DF91ED
:1034D0000895DF93CF93CDB7DEB781E00E94CC1083
:1034E000CF91DF910895DF93CF9300D000D0CDB777
:1034F000DEB78A837C836B838A818830F8F48A8183
:10350000882F90E00896880F991F880F991F880FC1
:10351000991F0E94CC1019820EC08981282F30E09B
:103520008B819C81FC01E20FF31F80810E94471573
:1035300089818F5F89838981883078F30F900F901C
:103540000F900F90CF91DF9108950F931F93DF930A
:10355000CF930F92CDB7DEB78983E2E5F0E010821A
:1035600089818436C0F40CE510E08981882F90E0D1
:10357000A0E0B0E0BA2FA92F982F882724E630E0EA
:1035800040E050E0BC01CD010E94431BDA01C901BB
:10359000F801808307C08981843621F4ECE5F0E0EE
:1035A0008FEF808381E063E041E00E94510BE3E50F
:1035B000F0E08AE680830F90CF91DF911F910F9109
:1035C0000895DF93CF93CDB7DEB783E065E041E0A8
:1035D0000E94510BECE4F0E011821082EFE4F0E085
:1035E00081E08083EEE4F0E08BE08083CF91DF9197
:1035F0000895DF93CF9300D0CDB7DEB79A83898348
:10360000E6E4F0E089819A81918380830F900F90A6
:10361000CF91DF910895DF93CF9300D0CDB7DEB780
:103620009A838983EAE4F0E089819A819183808397
:103630000F900F90CF91DF9108950F931F93DF9319
:10364000CF930F92CDB7DEB789830AE410E089816A
:10365000882F90E0A0E0B0E0BA2FA92F982F8827FC
:1036600024E630E040E050E0BC01CD010E94431B65
:10367000DA01C901F801918380830F90CF91DF9126
:103680001F910F910895A1E21A2EAA1BBB1BFD01E9
:103690000DC0AA1FBB1FEE1FFF1FA217B307E40731
:1036A000F50720F0A21BB30BE40BF50B661F771F89
:1036B000881F991F1A9469F7609570958095909569
:1036C0009B01AC01BD01CF0108952F923F924F9213
:1036D0005F926F927F928F929F92AF92BF92CF92A2
:1036E000DF92EF92FF920F931F93CF93DF93CDB7AB
:1036F000DEB7CA1BDB0B0FB6F894DEBF0FBECDBF23
:1037000009942A88398848885F846E847D848C84F3
:103710009B84AA84B984C884DF80EE80FD800C81FC
:103720001B81AA81B981CE0FD11D0FB6F894DEBFDF
:103730000FBECDBFED010895FB019F01E89442301B
:10374000C4F04532B4F44A3029F497FB1EF4909546
:1037500081959F4F642F77270E94CD1B805D8A3310
:103760000CF0895D8193CB010097A1F716F45DE21F
:1037700051931082C9010C94BD1BDC01FC01672F21
:1037800071917723E1F7329704C07C916D93708338
:103790006291AE17BF07C8F30895AA1BBB1B51E186
:1037A00007C0AA1FBB1FA617B70710F0A61BB70BB1
:1037B000881F991F5A95A9F780959095BC01CD0156
:0637C0000895F894FFCF0C
:1037C60043617273204E756D626572203D30005301
:1037D600746174653A20417661696C61626C65005A
:1037E60042757379202020202000202000456E7429
:1037F600657220706173732000204E756D00706CC9
:103806007A2072652D656E74657220746865007322
:10381600616D6520706173733A2000506173737730
:103826006F726473206469666665720052657472AD
:10383600790050617373776F726420637265617487
:103846006564007375636365737366756C6C790084
:10385600417661696C61626C6500000000000000E1
:02386600000060
:00000001FF
